:020000040800F2
:1000000048190120A1010008FB2F00087D260008E7
:10001000F92F0008BF060008134800080000000080
:100020000000000000000000000000001D3100087A
:1000300035080008000000000930000825320008DB
:10004000BB010008BB010008BB010008BB010008A0
:10005000BB010008BB010008BB010008BB01000890
:10006000BB010008BB010008BB010008BB01000880
:10007000BB010008BB010008BB010008D507000850
:10008000BB010008BB010008BB010008BB01000860
:10009000BB010008BB010008BB01000837080008CD
:1000A000BB010008BB010008BB010008BB01000840
:1000B000BB010008BB010008BB010008BB01000830
:1000C000BB010008BB010008BB010008BB01000820
:1000D000BB010008BB010008BB010008BB01000810
:1000E000BB010008BB010008BB010008BB01000800
:1000F000BB010008BB010008BB010008BB010008F0
:10010000BB010008BB010008BB010008BB010008DF
:10011000BB010008BB010008BB010008BB010008CF
:10012000BB010008BB010008BB010008BB010008BF
:10013000BB010008BB010008BB010008BB010008AF
:10014000BB010008BB010008BB010008FD2F00082F
:10015000BB010008BB010008BB010008BB0100088F
:10016000BB010008BB010008BB010008BB0100087F
:10017000BB010008BB010008BB0100080000000033
:10018000BB010008BB010008DFF810D000F05AFAEC
:100190000048004779FF0108AFF3008048190120AB
:1001A0000648804706480047FEE7FEE7FEE7FEE711
:1001B000FEE7FEE7FEE7FEE7FEE7FEE7DD320008CA
:1001C000890100082DE9F05F0546002092469B4614
:1001D00088460646814640241BE02846414647465D
:1001E000224600F0B0F953465A46C01A914110D346
:1001F00011461846224600F097F92D1A67EB0108C0
:100200004F4622460120002100F08EF917EB00092D
:100210004E41201EA4F10104DFDC484631462A4647
:100220004346BDE8F09F40EA01039B0703D009E085
:1002300008C9121F08C0042AFAD203E011F8013BD2
:1002400000F8013B521EF9D27047D2B201E000F82B
:10025000012B491EFBD270470022F6E710B513466A
:100260000A4604461946FFF7F0FF204610BD421C1F
:1002700010F8011B0029FBD1801A704710B500222D
:1002800000E0521C835C8C5CA34201D1002BF8D1AE
:10029000D8B2E1B2401A10BD034611F8012B00F8A4
:1002A000012B002AF9D1184670472DE9FE4F8046F0
:1002B00081EA0300C00F0C46009021F0004123F0BA
:1002C0000045B8EB0200A94105D2404621469046C0
:1002D0001C460B46024623F00040104347D0270D32
:1002E000C7F30A00C3F30A510290401A0190402854
:1002F0006BDAC3F3130040F4801B0098924620B1E0
:100300000023D2EB030A63EB0B0B01985946C0F1B3
:100310004002504600F008F906460D465046594640
:10032000019A00F020F910EB08006141002487EAEF
:10033000115284EAE7731A4340D0009A62B3019ADB
:10034000012A4FEA075215DC001B61EB02014FF056
:10035000004202EA0752CDE90042001C41F580113B
:1003600032462B4600F020F903B0BDE8F08F40463E
:100370002146F9E7001B61EB0201001C41F58013E7
:1003800000185B412018A2F5001747EB030140EA73
:10039000D570B6196D4111E06D084FEA360645EA91
:1003A000C0754FEA0752001B61EB0201001C41F5CA
:1003B000801149084FEA30000019514132462B465E
:1003C00003B0BDE8F04F00F0E0B800980122400013
:1003D0000023D0EB020263EBE073009821464FEA62
:1003E000E074B8EB000061EB0401E9E783F000433F
:1003F0005BE781F0004158E72DE9FE4F81EA0304F5
:1004000004F0004421F0004100944FF0000B23F071
:10041000004350EA01045ED052EA03045BD0C3F308
:100420000A54C1F30A552C44A4F2F3340194A0FBFE
:100430000254C1F3130141F48011C3F3130343F4D5
:10044000801301FB024400FB034E840A970A44EA2E
:10045000815447EA8357A4FB076802958D0A05FB80
:1004600007854FEA932C04FB0C542705029D4FEAA5
:10047000065847EA1637B5EB08056EEB070C870EF2
:10048000920E47EA811742EA8312A7FB0201B6EBFC
:100490000B0164EB00042B0D43EA0C335E1844EBB4
:1004A0001C50DA465146E7FB0201C5F313044FEA3C
:1004B0000B3343EA14534FEA0432019C43EA060328
:1004C000A4F10C040294009CCDE900B400F06CF897
:1004D00003B0BDE8F08F00200146F9E70EB540F209
:1004E000334102910021CDE900110A460B4600F08C
:1004F0005BF803B000BDC1F30A5210B5C1F313019C
:1005000040F2FF3341F480119A4201DA002010BD1D
:1005100040F233439A42A2F2334203DC524200F0EB
:1005200012F810BD904010BD202A04DB203A00FADA
:1005300002F1002070479140C2F1200320FA03F33A
:10054000194390407047202A04DB203A21FA02F038
:100550000021704721FA02F3D040C2F120029140FD
:10056000084319467047202A06DBCB17203A41FA88
:1005700002F043EAE07306E041FA02F3D040C2F130
:100580002002914008431946704710B5141E73F1BC
:10059000000408DA401C41F1000192185B411A4343
:1005A00001D120F0010010BD2DE9F04D92469B468F
:1005B00011B1B1FA81F202E0B0FA80F22032904635
:1005C000FFF7B2FF04460F4640EA0A0041EA0B017A
:1005D00053465A46084313D0114653EA010019D036
:1005E000C8F140025046FFF7AEFF05460E465046A2
:1005F00059464246FFF798FF084305D0012004E022
:1006000020463946BDE8F08D0020054346EAE076F5
:100610002C4337430A986305E40AA0EB0800002244
:10062000FD0A44EA47540A3002D500200146E9E7B2
:10063000010510196941DDE9084500196941BDE866
:10064000F04DA2E7064C074D06E0E06840F00103DC
:1006500094E8070098471034AC42F6D3FFF798FDB2
:10066000CC7C0208FC7C020870B58C1810F8015B89
:1006700015F0070301D110F8013B2A1106D110F83B
:10068000012B03E010F8016B01F8016B5B1EF9D13F
:100690002B0705D40023521E0DD401F8013BFAE7C5
:1006A00010F8013BCB1A921C03E013F8015B01F830
:1006B000015B521EF9D5A142D8D3002070BDFEE7E0
:1006C00070B50546D0F87C03C46994F84E00032841
:1006D0001BD0042818D1217B284603F0B7FA012843
:1006E00012D1217B284603F09CFAA16A814214D0E2
:1006F000628B824211D2091AA162216A08442062E7
:100700005FF0030084F84E0070BD237B628B2846A7
:10071000216A02F007FE0420F4E7002084F84E006E
:10072000284602F063FF70BDF8B50646D0F87C039A
:100730000125C46994F84D0001280AD0022807D188
:10074000617B304603F082FA012811D002281AD0CA
:10075000F8BD228B606A0095637B904200D882B21C
:100760003046E16902F0EEFD022084F84D00F8BD4C
:10077000208B626A0021824208D9121A6262E36900
:100780001844E06103D084F84D50F8BD616284F8EC
:100790004D10304602F02DFFF8BD000010B500F0FE
:1007A0001BF80848016821F40061016081140122EE
:1007B000054800F078F905492020C8600449002068
:1007C000086010BD00380040000402400060024094
:1007D000A0010020FFF7E2BF0148006813F0DABE75
:1007E000A401002010B500224FEA020100EB8203B1
:1007F000521CC3F884130F2AF8D300224FF400735D
:100800008418521C84F81C119A42F9D3017041706B
:1008100001228270C0F8C4130276402383714176AE
:1008200080F81C1380F81D2380F81F1380F81E1316
:10083000002010BD7047202000F026B872B6FEE7F9
:10084000A122027421224274002242828282072263
:10085000C28202F0F2BE000070B5044600F028F932
:100860000546601C02D004480078044400F020F9DA
:10087000401BA042FAD370BD04000020202801D103
:1008800003F0FEBF70470000044910B50A68024239
:1008900002D00860FFF7F2FF10BD0000143C0140D9
:1008A0002DE9F84FDFF8B8A1002201250AF1040B69
:1008B00003264FF00F090BF1040E00BF0B6805FA79
:1008C00002F42340A3426FD10F7907F00307012FF1
:1008D00001D0022F16D187684FEA420806FA08FCB9
:1008E00027EA0C07D1F80CC00CFA08FC4CEA070CFC
:1008F000C0F808C04768A7430C79C4F300149440BB
:100900003C4344600C79E443A4070AD0C4684FEA2E
:10091000420C06FA0CF7BC438F6807FA0CF7274322
:10092000C7600C7904F00304022C12D1D40800EB48
:10093000840CDCF820405707FF0E09FA07F824EA78
:100940000804D1F8108008FA07F848EA0408CCF83F
:10095000208004684FEA420C06FA0CF7BC430F797A
:1009600007F0030707FA0CF7274307604C68E40019
:1009700070D53C4C276847F480472760246822F0F4
:10098000030704F480440094374C07EB040CDCF8B4
:10099000084897074FEA177809FA08F7BC43334F1E
:1009A000B84202D1002724E054E0314FB84201D1CF
:1009B00001271EE02F4FB84201D1022719E02E4F28
:1009C000B84201D1032714E02C4FB84201D10427CB
:1009D0000FE02B4FB84201D105270AE0294FB8425A
:1009E00001D1062705E0284FB84201D1072700E0D2
:1009F000082707FA08F72743CCF80878DAF8004008
:100A00005746D1F804C09C435FEACC3C00D51C4358
:100A10003C60DBF800405F46D1F804C09C435FEACD
:100A20008C3C00D51C433C60DEF800407746D1F892
:100A300004C09C435FEACC2C00D51C433C60084FAB
:100A40000C373C68D1F804C09C435FEA8C2C00D57D
:100A50001C433C60521C102AFFF430AFBDE8F88FF5
:100A6000003C014044380240003001400000024098
:100A70000004024000080240000C02400010024046
:100A80000014024000180240001C024000690840A7
:100A900000D001207047426921EA02030A4043EA7C
:100AA0000241816170470AB1816170470904FBE727
:100AB000014880687047000004000020D0F800035F
:100AC00003F081B8D0F8000303F087B8006803F0A2
:100AD000E7BB006803F0E8BB01EB410202EBC10198
:100AE00000EB810090F86000704701EB410202EBDF
:100AF000C10100EB8100006D704710B5044690F80D
:100B0000F802012809D0012084F8F802206803F0D7
:100B1000D6FB002084F8F80210BD022010BD2DE99C
:100B2000FE430546DDE90B7095F8F842DDF828C074
:100B3000012C1ED001EB410404EBC1044FF001096C
:100B400005EB840485F8F892002684F83D6084F86B
:100B50003830A4F8400084F8391084F83F7002F06F
:100B60007F0884F83A805FEA026805D584F83B90F4
:100B700004E00220BDE8FE8384F83B6084F83CC0BA
:100B8000CDF800C0CDE90170286803F005FC85F8B8
:100B9000F862EFE770472DE9F00301EB4104DDE96E
:100BA00006C9DDE9087504EBC10400EB84040226E4
:100BB00084F83B2084F83F30BCF1000F0AD084F861
:100BC000426000256BB1012B2FD0022B12D0032BDA
:100BD00016D10FE04FF0030884F8428084F83D50AE
:100BE000EFE7BCF1010F0BD152B9DFB9012284F854
:100BF000552003E0B2B194F85420B2B184F84260B9
:100C0000C4F84490E76484F86050256584F839108E
:100C100084F86150027C04F138010068BDE8F003FB
:100C200003F03BBC94F85520E7E784F84250E7E72F
:100C30002DE9F04104460068064603F03CFB01281C
:100C40007DD1206803F051FD002878D0206803F0A2
:100C50004CFD800203D521684FF4001048612068E4
:100C600003F043FDC00203D521684FF480104861B2
:100C7000206803F03AFD400103D521684FF0806001
:100C80004861206803F031FD800702D52168022009
:100C90004861206803F029FD80000ED521684FF0DF
:100CA00000504861D6F84004C00706D12046FFF73F
:100CB00009FF0121206803F0FDFC206803F015FD09
:100CC000C00102D5204601F049FC206803F00DFD6B
:100CD000000705D5204600F0D0F8216808204861BB
:100CE000206803F002FDC043C0060CD4206881696F
:100CF00021F010018161204601F07AFC20688169B1
:100D000041F010018161206803F0EFFC800124D5DF
:100D1000206803F0BEFB074600254FF0010815E0F0
:100D200005F00F0108FA01F038420ED006EB45102D
:100D3000D0F80005E9B20004204604D500E00CE03C
:100D400001F081F901E001F0BCFA6D1CA068A84235
:100D5000E6D821684FF000704861BDE8F08170B5B9
:100D60008AB0040005D094F8F9022568002618B16D
:100D700007E001200AB070BD84F8F862204600F058
:100D800027F8032084F8F902E86BC00500D4266137
:100D9000206803F02FFA04F1100128220D4668465E
:100DA000FFF741FA94E80F0003F0CEF90121206823
:100DB00003F0C6FC282229466846FFF734FA94E877
:100DC0000F0003F00BFC012084F8F9020020D1E7AA
:100DD00030B587B0044614216846FFF73DFA206815
:100DE000B0F1A04F38D11D480024016841F0010145
:100DF000016000681A4D00F0010005904FF400708A
:100E0000CDE90004694628460294FFF749FD4FF4F6
:100E1000E05000900220CDE901040A20CDE9034012
:100E200069462846FFF73CFD0C48001D016841F06B
:100E30008001016009481430016841F4804101607B
:100E40000068002200F4804005901146432000F025
:100E5000D5FB432000F0B2FB07B030BD3038024074
:100E600000000240D0F8000302F03ABFD0F80003BF
:100E700002F03ABF006803F04ABCD0F8000302F069
:100E8000E9BE10B5044690F8F80201280DD0012003
:100E900084F8F802206803F0DBF90121206803F0F0
:100EA000C1F9002084F8F80210BD022010BD10B571
:100EB000044690F8F802012809D0012084F8F802CD
:100EC000206803F055FC002084F8F80210BD0220D1
:100ED00010BD000070B5040025D094F83D00002539
:100EE00020B984F83C50204600F0B8F8242084F85B
:100EF0003D002068016821F001010160206801685F
:100F000041F4004101602068016821F40041016062
:100F100000F00CFD4D4A6168914201D84C4900E057
:100F20004C49884201D2012070BD4B492368B0FB77
:100F3000F1F15E6826F03F060E435E6063689342FF
:100F400006D94FF4967359434FF47A73B1FBF3F11A
:100F50002368491C1E6A26F03F0631431962616806
:100F6000914210D84900401EB0FBF1F2521CC2F36E
:100F70000B02042A01D2042022E0B0FBF1F0401C55
:100F8000C0F30B001CE0A268F2B301EBC10303EB5A
:100F90000116431EB3FBF6F35B1C43F480431B05B1
:100FA00049D092B301EBC10202EB0111401EB0FB2C
:100FB000F1F0401CC0F30B0040F4804040F40040CE
:100FC0002168CA694CF6FF739A431043C861D4E99B
:100FD000071001432068026822F0C002114301603B
:100FE000D4E9030101432068826848F2FF339A4341
:100FF00011438160D4E9050108432168CA6822F0E1
:10100000FF021043C86001E00EE016E020680168AE
:1010100041F0010101602564202084F83D00256332
:1010200084F83E50002070BD01EB4106431EB3FB27
:10103000F6F35B1CB3E70120C2E701EB4101401E60
:10104000B0FBF1F0401CC0F30B00B7E7A086010035
:1010500080841E0000093D0040420F0010B586B09C
:10106000044614216846FFF7F7F8144920688842BF
:1010700021D113480021026842F002020260006898
:1010800000F0020005904FF41070009012200190C3
:101090000120CDE902010420049069460948FFF7C8
:1010A000FFFB07481030016841F40011016000683F
:1010B00000F40010059006B010BD00000054004080
:1010C00030380240000402402DE9FF410446006828
:1010D000816800917749784E4FF04027884201D1CE
:1010E000324600E03A469268019240688846029093
:1010F00001D1304600E038464068039060684FF008
:101100000105B0F5007F1CD0D8B1900705D5039834
:10111000000602D5204601F0E3FA0098C0070FD080
:10112000029840067FD521682046CA68E16A8B1C78
:10113000E3620A80618E491E6186618E002967D054
:1011400071E00098800719D50298000616D5616AEB
:1011500020468A1C626222680988D160618D491E1E
:101160006185618D51B901684A6822F0A0024A6028
:10117000418E19B980F8415000F0A0F80198C007DD
:1011800005D00398400602D5204601F079FA01986F
:10119000400622D5039880061FD52168414501D11C
:1011A000304600E03846406820F0600101D130460A
:1011B00000E0384641602068416821F0A0014160AC
:1011C0002068C1688068019084F84150606C40F0EC
:1011D00002006064204600F072F80098000767D5AE
:1011E0000298800664D52068416821F0A001416022
:1011F0002168414501D1304600E03846406820F082
:10120000600000D03E46706020688068009043E037
:1012100001684A6822F060024A60418D19B980F87D
:10122000415000F04BF8009840061ED50298800609
:101230001BD52068416821F060014160216841456B
:1012400001D1304600E03846406820F0A00101D1CD
:10125000304600E03846416084F84150606C40F010
:1012600002006064204600F02AF8019800071FD5AC
:10127000039880061CD52168414501D1304600E025
:101280003846406820F0A00000D03E4670602068DC
:10129000416821F06001416084F84150606C40F089
:1012A0000400606404B02046BDE8F04100F007B8D7
:1012B000BDE8FF81003800400034004070477047AF
:1012C0002DE9F047040005D094F841004FF00008E4
:1012D00018B109E00120BDE8F08784F8408051484A
:1012E0006063204600F0A6F8022684F8416020687A
:1012F000C16940F6BF77B943C16120680662606981
:101300004FF4007902282FD0E06870B12025A06842
:10131000202800D86D00012000F0A2F9216949457C
:101320001FD1E16819B1A90002E01025EFE7E9003B
:10133000B0FBF1F000EB800061694000B0FBF1F020
:10134000401D0A21B0FBF1F000F00101401A4008F5
:101350000902821EFE2A09D3606C40F0100060640E
:10136000B8E7B0FBF5F0E5E7022000212269084369
:10137000024320680262D4E901010843A269E168DE
:10138000114308432168CA69BA43104340F400601E
:10139000C861206A01283AD1234860632348216844
:1013A000234A4FF04023814201D1114600E0194603
:1013B000C96921EA070101D1154600E01D46E9612E
:1013C0002168814201D1114600E019460E6225686C
:1013D000854201D1114600E01946C9698EB26168A3
:1013E00049451BD0D1B100212789B4F80CC047EA88
:1013F0000C07B4F818C04CEA010C47EA0C07B9B264
:10140000314341F40061854200D01A46D161C4F8ED
:101410004480012084F8410000205CE74FF4807193
:10142000E2E7000041270008C9100008003800402A
:101430000034004070B586B0044614216846FEF7BB
:101440000BFF1C492068884232D11B4800240168E8
:1014500041F400410160006800F400400590164826
:101460001038016841F001010160016801F00101DB
:101470000591016841F0040101600068022500F057
:101480000400059010200090CDE901540626CDE916
:10149000034669460948FFF703FA4FF4A450009049
:1014A000CDE90154CDE9034669460548FFF7F8F94F
:1014B00006B070BD003C00404038024000000240D1
:1014C0000008024070477047024881680278114462
:1014D00081607047040000200B4810B5016841F49A
:1014E00000710160016841F480610160016841F4AC
:1014F00080710160032000F0A1F8002000F006F8E0
:1015000000F024F8002010BD003C024070B50D4DE5
:1015100004464FF47A712878B1FBF0F00A49096863
:10152000B1FBF0F000F07BFD48B9102C07D200228F
:101530002146501E00F062F800206C6070BD012052
:1015400070BD000004000020100000200B4882B095
:10155000016841F480410160006800F4804000901F
:101560000648001F016841F080510160006800F0EA
:1015700080500090072002B000F060B8443802406C
:10158000002809DB00F01F02012191404009800082
:1015900000F1E020C0F88012704700280DDB00F059
:1015A0001F02012191404009800000F1E020C0F8B5
:1015B0008011BFF34F8FBFF36F8F7047002809DB97
:1015C00000F01F02012191404009800000F1E0205D
:1015D000C0F80011704700280DDB4109890001F1B6
:1015E000E021D1F8001200F01F02012090400142DA
:1015F00001D001207047002070470000F0B40E4B6E
:101600001B680C46C3F30223C3F10705042D00D960
:101610000425191D072901D2002300E0DB1E012645
:1016200006FA05F1491E214099409E40761E16405B
:101630003143F0BC03F028BA0CED00E0064900F09D
:10164000070208684FF6FF03184040EA0220034AE9
:1016500010430860704700000CED00E00000FA0540
:1016600001460020012907D11049096811F4000141
:1016700003D0012900D10E4870470C48001F0168B3
:101680000068490200F03F0001D50A4900E00A491C
:10169000064AB1FBF0F07C321168C1F38811414376
:1016A0001068C0F30270B1FBF0F0704708380240D8
:1016B0000080BB0000127A000024F4002DE9F843FA
:1016C000054600684FF00109C1074FF0000601D13F
:1016D000400727D5DFF80C81C8F86860FFF7E8F904
:1016E0000746414C05E000BFFFF7E2F9C01B0228A6
:1016F00057D820680001F7D468688101287A41EA48
:101700000070394984310860C8F86890FFF7D0F953
:10171000074604E0FFF7CCF9C01B022841D8206837
:101720000001F7D52878800752D52F48403001684E
:1017300041F08051016000682C4C00F08050009016
:10174000206840F480702060FFF7B2F9074604E09B
:10175000FFF7AEF9C01B022823D82068C005F7D5D3
:10176000214C7034206810F4407020D0A98901F415
:10177000407181421BD020681D4920F44070C1F89F
:1017800000900E6020602068C00710D0FFF790F92D
:10179000064641F2883707E0FFF78AF9801BB84216
:1017A00002D90320BDE8F88320688007F4D5E968F2
:1017B0000D48C1F301220830032A0BD0016821F43F
:1017C000F81101602068A989C1F30B01084320606A
:1017D0000020E7E70268074B22F4F81219400A4399
:1017E0000260EFE70000474200380240007000400E
:1017F000400E4742FFFCFF0F2DE9F0470E46050063
:1018000065D0DFF81481D8F80000F7B200F00700C7
:10181000B04207D288F80070D8F8000000F0070046
:10182000B04254D128683D4C810712D5400703D5FA
:10183000206840F4E05020602878000703D5206835
:1018400040F4604020602068A96820F0F000084360
:1018500020602878C0072DD03049686808390128F1
:1018600012D0022813D0032811D009688907002953
:101870002DDA216821F0030101432160FFF718F9F7
:10188000814641F2883A0EE009688903EFE709686A
:101890008901ECE7FFF70CF9A0EB0901514502D9EA
:1018A0000320BDE8F0872068696800F00C00B0EB09
:1018B000810FEFD1D8F80010404601F00701B14286
:1018C00007D90770006800F00700B04201D001207E
:1018D000E7E72878400705D52068E96820F4E0505C
:1018E000084320602878000706D52068296920F47D
:1018F000604040EAC100206000F028F82168084AF2
:10190000C1F30311515CC8400649086006480068ED
:10191000FFF7FCFD0020C4E7003C0240083802400D
:10192000B23A0208100000200800002004480549CF
:1019300000680968044AC1F38221515CC8407047BD
:101940001000002008380240C23A0208154810B5BD
:10195000006810F00C02144813D04110042A0FD074
:10196000082A0ED10F4C241F2268236802F03F0280
:101970005B0207D52068C0F38810A0FB010106E0D8
:10198000084610BD2168C1F38811A1FB00010023A6
:10199000FEF718FC2168C1F30141491C4900B0FB66
:1019A000F1F010BD083802400024F4002DE9F84F92
:1019B00004006ED02078DFF84C93C007A9F104052D
:1019C0004AD009F104000168C1F38101012908D05E
:1019D0000068C0F3810002280AD1D9F80000400253
:1019E00006D52868800337D560680028E1D033E049
:1019F0006068B0F5803F10D0B0F5A02F286810D0F7
:101A000020F480302860286820F4802028606068F6
:101A1000A8B1FFF74DF806460DE0286840F4803085
:101A2000F4E740F480202860F7E700BFFFF740F8B4
:101A3000801B642873D828688003F7D50CE0FFF773
:101A400037F8064605E000BFFFF732F8801B642830
:101A5000F0D828688003F7D42078DFF8AC828007BC
:101A60004FF0000A3ED5A748001D016811F00C0F89
:101A700008D00068C0F3810002280BD1D9F800001B
:101A8000400207D42868800716D5E068012800D1F5
:101A900012E033E1E068B8B10120C8F80000FFF7B8
:101AA00007F8064605E000BFFFF702F8801B022892
:101AB000C0D828688007F7D52868216920F0F80089
:101AC00040EAC10028600DE0C8F800A0FEF7F0FF72
:101AD000064604E0FEF7ECFF801B02281FD82868AA
:101AE0008007F7D42078000722D5864F87486169A0
:101AF000703771B101210160FEF7DAFF064604E09C
:101B0000FEF7D6FF801B022809D838688007F7D572
:101B10000EE0C0F800A0FEF7CBFF064605E082E02D
:101B2000FEF7C6FF801B02287DD838688007F7D4EF
:101B30002078400768D5DFF8CCB100270BF13C0BCB
:101B4000DBF80000C0000BD4DBF8001041F080513E
:101B5000CBF80010DBF80000012700F08050009067
:101B60006B4E3068C00510D4306840F4807030602F
:101B7000FEF79EFF009005E0FEF79AFF0099401ADD
:101B8000022850D83068C005F6D55E4EA0686C3685
:101B900001280FD00528306810D020F001003060F7
:101BA000306820F004003060A068B8B1FEF780FF14
:101BB00000900FE0306840F00100F4E740F00400CE
:101BC0003060F7E7FEF774FF0099411A41F2883060
:101BD000814266D830688007F4D50EE0FEF768FFD2
:101BE000009007E0FEF764FF0099411A41F2883047
:101BF000814256D830688007F4D42FB1DBF800104A
:101C000021F08051CBF80010A069C8B33D49091DEF
:101C10000968C1F3810102294AD00228504607D041
:101C2000C8F8600000E03CE0FEF742FF04463BE0FD
:101C30004746C8F86000FEF73BFF064605E000BFD8
:101C4000FEF736FF801B02282BD828688001F7D4C6
:101C5000D4E907010843A16A2E4A490802EB014171
:101C6000626A41EA8211084394F82C1040EA01614B
:101C7000C9F8001001203866FEF71AFF044606E096
:101C80003EE000BFFEF714FF001B022809D82868B9
:101C90008001F7D534E000BFFEF70AFF001B0228E1
:101CA00002D90320BDE8F88F28688001F4D427E02A
:101CB0000128F7D0D9F80000E26900F480019142D0
:101CC0001CD1226A00F03F01914217D147F6C07142
:101CD000626A0140B1EB821F10D1A26A4FF0FF335C
:101CE00000F4403103EB5202B1EB024F06D194F8FD
:101CF0002C1000F07060B0EB016F01D00120D1E733
:101D00000020CFE70438024000004742800E4742DF
:101D1000007000400000FFFF70B5040009D0606A49
:101D2000002540B125616561A56294F8510040B17C
:101D30000CE0012070BD6068B0F5827FF4D0E561F1
:101D4000F2E784F85050204600F044F8022084F86E
:101D500051002068016821F040010160A0882189BC
:101D600000F4827001F404410843A18901F4006188
:101D70000843217C01F002010843217D01F00101AB
:101D80000843218B01F400710843217F01F03801E1
:101D9000084394F8201001F080010843218D01F4DC
:101DA0000051084321680860A069042101EA10403D
:101DB00094F8241001F0100108432168486020685D
:101DC000C16921F40061C1616565012084F8510099
:101DD000002070BD10B586B0044614216846FEF799
:101DE0003BFA1349206888421FD11248002102683B
:101DF00042F480520260006800F4805005900D4863
:101E00001438026842F001020260006800F001002C
:101E10000590E02000900220CDE901010520CDE9E8
:101E2000031069460448FEF73BFD06B010BD0000F4
:101E30000030014044380240000002402DE9F84FD4
:101E4000044690F8500000270A9E1D4692468B4695
:101E50004FF0010901280ED0012084F85000FEF750
:101E600027FE804694F85100616801280CD0B1F536
:101E7000827F07D102E00220BDE8F88FA16809B98E
:101E8000042801D00227C2E0BBF1000F27D0BAF12D
:101E9000000F24D01DB394F85100042802D005206F
:101EA00084F8510000206065C4F838A0E587A58754
:101EB000C4F830B0E586A5862064606420680168B7
:101EC000490603D4016841F040010160E068B0F5C3
:101ED000006F606805D0E8B3012D46D07FE0012790
:101EE00095E008B1012D39D1206B21680088C860C8
:101EF000206B801C2063E08E401EE0862EE0206870
:101F0000816889070FD5E18E69B1B9F1010F0AD156
:101F1000216B0988C160206B801C2063E08E401E0D
:101F2000E0864FF0000920688168C9070CD0E18F76
:101F300051B1C068A16B0880A06B801CA063E08FCA
:101F4000401EE0874FF00109FEF7B2FDA0EB08004C
:101F5000B04200E009E001D3701C50D1E08E0028AF
:101F6000CDD1E08F0028CAD13FE0206B21680078F6
:101F70000873206B401C2063E08E401EE0862EE03C
:101F80002068816889070FD5E18E69B1B9F1010F29
:101F90000AD1216B09780173206B401C2063E08E0D
:101FA000401EE0864FF0000920688168C9070CD008
:101FB000E18F51B1C068A16B0870A06B401CA06399
:101FC000E08F401EE0874FF00109FEF771FDA0EBA6
:101FD0000800B04202D3701C01D010E07EB1E08E48
:101FE0000028CDD1E08F0028CAD142463146204694
:101FF00001F00CF828B101272020606507E00327D5
:1020000005E0A06818B92068C168806800900120C8
:1020100084F85100002084F8500038462CE710B5B1
:10202000401EB0F1807F01D3012010BD4FF0E024AD
:1020300060610F21601702F027FD0020A0610720DA
:102040002061002010BD2DE9F047074600680E46CC
:1020500000EB4114D4F808054FF00409420701EBE6
:10206000410000EBC6004FF0050A4FF0100807EBE7
:10207000800508D5C4F80895D4F80C0540F0020096
:10208000C4F80C0553E0D4F80805C0050DD54FF48D
:102090008070C4F80805072085F86100D4F80C05A5
:1020A00040F00200C4F80C0529E0D4F808058006C9
:1020B00001D5202039E0D4F8080501074FF00800C9
:1020C0000AD5D4F80C1541F00201C4F80C1585F8B6
:1020D00061A0C4F808850FE0D4F80815490512D5A9
:1020E000D4F80C1541F00201C4F80C1585F8610014
:1020F000C4F808854FF48060C4F808053146386894
:1021000002F0DDF813E0D4F8080500060FD5D4F886
:102110000C0540F00200C4F80C05062085F86100AB
:102120003146386802F0CBF88020C4F80805D4F8AE
:102130000805800510D5D4F80C0540F00200C4F85D
:102140000C05314604F5A164386802F0B8F84FF484
:1021500000702060BDE8F087D4F808054FF000015A
:10216000C0074FF001024BD0386930B1A86CD4F8E9
:102170001035C3F31203C01A286585F86120E9659C
:10218000C4F8082595F83F0030B1022804D0032890
:1021900011D0012818D023E0D4F80C0540F002003B
:1021A000C4F80C05314604F5A164386802F087F8DC
:1021B000C4F8008014E0D4F8000540F00050C4F8E2
:1021C000000585F8602007E085F8602095F8540048
:1021D00080F0010085F8540031463846FEF7DAFCFD
:1021E0003869012806D1B5F84010A86CB0FBF1F0B1
:1021F000C007AFD015F8540F80F001002870A9E790
:10220000D4F8080580073BD5D4F80C0520F002006F
:10221000C4F80C0595F86100022301280AD00528AE
:102220000BD006280CD008280AD003280FD0072886
:1022300018D01CE085F8602019E085F860A016E051
:10224000E86D401CE865022801D9E9650DE085F8D4
:102250006030D4F8000520F0804040F00040C4F821
:10226000000504E0E86D401CE86585F86090C4F85E
:10227000083595F8602031463846FEF78BFC69E753
:10228000D4F80805C006BAD595F83F00032803D056
:1022900020B1022802D011E0E96505E0E96538695E
:1022A00060B9032085F86100D4F80C0540F0020005
:1022B000C4F80C053146386802F001F8C4F8088506
:1022C00048E72DE9F047026802EB4114D4F80825ED
:1022D00053074FF0040209D5C4F80825D4F80C05BB
:1022E00040F00200C4F80C05BDE8F087D4F80835CA
:1022F00001EB41079E0607EBC1054FF0000300EB21
:1023000085054FF0020C15D52022C4F8082595F854
:102310003D20012AE8D185F83D3085F860C0D4F829
:102320000C2542F00202C4F80C250068BDE8F04715
:1023300001F0C5BFD4F80865B6050DD5D4F80C2555
:1023400042F00202C4F80C25006804F5A16401F013
:10235000B6FF4FF400706DE0D4F808654FF0400709
:102360005FEAC6784FF0010617D0EB65D4F8082570
:10237000520603D585F83D60C4F80875D4F80C25DD
:1023800042F00202C4F80C25006804F5A16401F0D3
:1023900096FF266085F86160A6E7D4F808855FEAB5
:1023A000486811D585F8612085F83D60EB65D4F863
:1023B0000C2542F00202C4F80C25006804F5A16463
:1023C00001F07DFF27608FE7D4F808754FF005090D
:1023D0005FEA07784FF008070DD5C4F80875D4F800
:1023E0000C2542F00202C4F80C25006801F067FFDA
:1023F00085F8619078E7D4F808854FF0100A5FEA15
:10240000C86819D50322EB6585F8612095F83D2051
:1024100022B995F83C200AB985F83D60D4F80C251E
:1024200042F00202C4F80C25006804F5A16401F032
:1024300046FF5046206057E7D4F808855FEA0868F1
:102440001FD5066956B1EE6D761CEE65022E12D9C7
:10245000EB6585F86020FEF79DFB0EE0062285F80F
:102460006120D4F80C2542F00202C4F80C25006863
:1024700001F025FF01E085F860C08020C4F8080560
:1024800032E7D4F808855FEA485812D5D4F80C250D
:1024900042F00202C4F80C25006804F5A16401F0C2
:1024A0000EFFC4F800A04FF48060206085F86170D2
:1024B0001AE7D4F80875BF0785D5D4F80C7527F04E
:1024C0000207C4F80C7595F86170012F0AD0032F2C
:1024D00024D0042F22D0052F23D0062F24D0082F5C
:1024E00022D034E085F8606095F83F20022A01D0C0
:1024F000032A2CD10269012A09D1EA6C3AB3B5F852
:1025000040301A44521EB2FBF3F2D2071FD095F8A6
:10251000552082F0010285F8552018E085F860C04A
:1025200015E085F8609012E0EE6D761CEE65022EE7
:1025300003D9EB6585F8602009E085F860C0D4F820
:10254000002522F0804242F00042C4F80025C4F881
:1025500008C595F86020FEF71DFBC5E67CB504684C
:102560000546D4F840040190D4F8400420F02E0031
:1025700000900198800709D50198C00702D028462D
:10258000FEF79CFA009840F00200009001980007C6
:1025900024D5009840F008000090019840071AD513
:1025A000A869022803D0E86801280CD00FE0019840
:1025B000C0F341400228286803D0012102F07AF8D4
:1025C00005E00221FAE74EF66020C4F8040428462C
:1025D000FEF74CFC02E02846FEF744FC019880061A
:1025E000009802D540F020000090C4F840047CBD63
:1025F0002DE9F041024600680646016AC1F34343F3
:1026000001F00F07C1F30A15022B31D1002D2FD095
:1026100007EB470101EBC70102EB8104616C002964
:1026200026D0226DE36C2A449A4223D82A4602F02F
:1026300060F8606C28446064206D2844206506EBD7
:102640004710D0F81015B4F84020C1F3C941AA4290
:102650000ED100290CD0D0F8001521F0804141F0B6
:102660000041C0F8001514F8540F80F001002070EC
:10267000BDE8F081042084F86000F9E7FEE700007F
:1026800070B515490268154B4FF040248A4201D1BC
:102690001A4600E02246D568C26A961CC6621580BA
:1026A000428E521E4286428E002A14D102688A420D
:1026B00001D1194600E02146496821F0600100D0AF
:1026C00023465960418D002905D14FF0010180F862
:1026D0004110FEF7F3FD70BD0038004000340040AB
:1026E00070B5416A144B8A1C426205680988134A16
:1026F0004FF040249D4201D1154600E02546E96097
:10270000418D491E4185418D002914D101689942AE
:1027100001D1114600E02146496821F0A00100D016
:1027200022465160418E002905D14FF0010180F809
:102730004110FEF7C3FD70BD00380040003400407A
:102740007CB5016804468868009094F84100012532
:10275000042834D10098C00718D04868C043400608
:1027600014D4C9682046E26A1180E16A891CE162DA
:10277000618E491E6186618E41B901684A6822F006
:1027800060024A6080F84150FEF79CFE00984006C7
:1027900015D520684168C943890610D4416821F0E5
:1027A000600141602068C1688068019084F84150F0
:1027B000606C40F0020060642046FEF780FD94F8F3
:1027C0004100032834D10098800719D52168486852
:1027D000C043000614D4626A20461288CA60616A47
:1027E000891C6162618D491E6185618D41B90168F5
:1027F0004A6822F0A0024A6080F84150FEF763FE6A
:102800000098000714D520684168C94389060FD491
:10281000416821F0A001416020688068009084F840
:102820004150606C40F0040060642046FEF747FDB4
:102830007CBD000070B51848164C016841F040019D
:1028400001608515154E002229463046FEF72BF90A
:102850000A20FEF701F8012229463046FEF723F947
:102860000BE000BF14F8015B214605F07F063246FD
:1028700000F032F83444280602D50A20FDF7ECFFB8
:1028800014F8010B0028EDD1BDE87040012000F0E4
:102890008FB800007C7A020800380040000C02402B
:1028A00031B50B4D4FF48054002221462846FEF7E7
:1028B000FAF80022E1100748FEF7F5F80121684612
:1028C00000F036F8012221462846FEF7ECF838BD24
:1028D00000040240000C02402DE9F743124D9146DE
:1028E00088464FF48054002221462846FEF7DBF844
:1028F0000E4FE610002231463846FEF7D4F801218B
:10290000684600F015F8012231463846FEF7CBF84C
:102910004946404600F00CF8012221462846FEF7C1
:10292000C2F8BDE8FE83000000040240000C024033
:102930002DE9F0410C4F0C4605464FF4805600221D
:1029400031463846FEF7AFF8002304E0E85C00F0BB
:1029500057FC5B1C9BB2A342F8D331463846BDE816
:10296000F0410122FEF79FB80004024038B50D4641
:10297000010A8DF800108DF80100100A8DF8020090
:102980008DF803201C46042269462A20FFF7A4FF85
:10299000280A8DF800008DF80150200A8DF80200F9
:1029A0008DF80340042269462B20FFF795FF38BDC0
:1029B00001B59DF80000032811D830B1012806D0D8
:1029C00002280DD0032805D10CE0482000E0282083
:1029D0008DF80000012269463620FFF77DFF08BD13
:1029E0008820F5E7E820F3E770B50C460D49154659
:1029F0000860E388A28861882088FFF7B7FF2C2051
:102A0000FFF74EFFA08821886288401AE188401CA9
:102A1000891A491C484381B22846BDE8704000F03D
:102A20007FBB0000A4010020F0B50A680F2692FACF
:102A3000A2F2B2FA82F303248AE001279F4015EA4A
:102A400007027DD04D68012D01D0022D1BD18D686C
:102A5000876892FAA2FCBCFA8CFC4FEA4C0C04FA90
:102A60000CFC27EA0C0792FAA2FCBCFA8CFC4FEA99
:102A70004C0C05FA0CF52F438760CD684768554329
:102A800097432F4347600F69D0F80CC092FAA2F524
:102A9000B5FA85F54FEA450E04FA0EF52CEA050C59
:102AA00092FAA2F5B5FA85F56D00AF404CEA070C35
:102AB000C0F80CC04D68022D33D192FAA2F5B5FAD8
:102AC00085F5082D15D2D1F814C0056A92FAA2F73F
:102AD000B7FA87F7BF0006FA07F7BD4392FAA2F7E5
:102AE000B7FA87F7BF000CFA07FC45EA0C05056248
:102AF00017E0D1F814E0476A150A95FAA5FCBCFA6C
:102B00008CFC4FEA8C0C06FA0CFC95FAA5F5B5FA8C
:102B100085F5AD0027EA0C070EFA05FE47EA0E0719
:102B200047624D68076892FAA2FCBCFA8CFC4FEA37
:102B30004C0C04FA0CFE27EA0E0792FAA2F200E00F
:102B400005E0B2FA82F2520095402F4307605B1C09
:102B50000A681546DA407FF470AF0020F0BD10B56A
:102B600003680122C3F380132BBBD1E900231A436E
:102B7000D1E9023423431A430B691A434B691A43C0
:102B80008B691A43CB691A430B6A1A4303684FF6E1
:102B9000BF74A3431A43026042684B6922F00402E7
:102BA00042EA134242600A6AB2F5005F02D1898CA0
:102BB00089B201610022C16921F40061C16110463E
:102BC00010BD0000104808B50268002142F4001250
:102BD0000260006800F4001000900C480068C0F328
:102BE0000220021D072A01D2002000E0C01E814001
:102BF0000801074981F800044FF0E0214FF400403C
:102C0000C1F8000108BD0000303802400CED00E0C2
:102C10000FE000E020B1002201210248FDF743BF90
:102C20000122F9E7000802402DE9F04F87B0142196
:102C30006846FDF711FB5C480024016841F0100173
:102C40000160016801F010010591016841F0040183
:102C50000160016801F004010591016841F0800103
:102C60000160016801F080010591016841F00101F6
:102C70000160016801F001010591016841F0020164
:102C80000160016801F002010591016841F008014D
:102C900001600068012200F0080005900821434807
:102CA000FDF701FF012211214148FDF7FCFE4FF421
:102CB000805A002251463F48FDF7F5FE4FF2103B87
:102CC000002259463C48FDF7EEFE082601250096F5
:102CD000CDE90154694635480394FDF7E1FD112023
:102CE0000090CDE90154694631480394FDF7D8FDC1
:102CF00000960226CDE901640527CDE90347694620
:102D00002B48FDF7CDFDDFF8B4800095CDE90184B7
:102D100069462B48FDF7C4FD4FF020092948CDF83E
:102D20000090CDE9010469462148FDF7B9FD042072
:102D3000CDE9000469461F480294FDF7B1FDA802E1
:102D40000090CDE90164CDE9034769461948FDF7D4
:102D5000A7FDCDF800A0CDE90154694615480394BC
:102D6000FDF79EFDCDF800B0CDE90154694612484B
:102D70000394FDF795FDCDE9009469460E48029451
:102D8000FDF78EFD0096CDE9018469460748FDF701
:102D900087FD002211461720FEF730FC1720FEF7B2
:102DA0000DFC07B0BDE8F08F303802400010024043
:102DB0000008024000040240000C02400000121013
:102DC00000000240000021100D4810B50B490160C1
:102DD0000C49416000214FF480428160C0E9031238
:102DE00041618161C1610162FEF774F8002803D07E
:102DF000BDE81040FDF722BD10BD000000540040AA
:102E00007CCA0020A08601000B490C4810B54A1569
:102E1000C0E9001200218160C0E90312084AC0E93C
:102E20000521C1610162FEF74BFA002803D0BDE81D
:102E30001040FDF703BD10BD003C0040D0CA00208B
:102E400000770100104810B50E4901604FF48271FF
:102E5000416000218160C1604FF400720161C0E9EE
:102E600005122822C0E90721416281620A21C1625C
:102E7000FEF752FF002803D0BDE81040FDF7DEBC8E
:102E800010BD00000030014018CB002010B592B0FA
:102E900028216846FDF7E0F918210AA8FDF7DCF9BA
:102EA0003D48016841F480410160006800F48040C1
:102EB000109039481038016841F002010160006843
:102EC000002400F0020010904FF460400A900220AD
:102ED0000B900320CDE90C040520CDE90E400AA992
:102EE0002E48FFF7A1FD2F482D4902798A58037912
:102EF00022F06062CA5002798A58037922F0C00237
:102F000042F04002CA5002798A58037922F44032D2
:102F1000CA5002798A58037922F49072CA50027911
:102F20008A58037922F40072CA5002798A580379C8
:102F300042F48062CA5002798A58037922F4C0525E
:102F400042F40062CA5002798A58037922F4C042DE
:102F500042F40052CA501249027914315258007991
:102F600022F0040242504FF48270CDE9004048152F
:102F7000CDE9044003940A20CDE908400294069468
:102F80000794094C69462046FFF7E9FD606820F088
:102F90001000606012B010BD4038024000040240D2
:102FA00000600240AA3A02080038004010B5012231
:102FB0000B490C4800F0DFFD08B1FDF73FFC0A4962
:102FC000084801F063F808B1FDF738FC054801F046
:102FD000A0F8002803D0BDE81040FDF72FBC10BDBD
:102FE0002941000870CB002014000020014800F0A7
:102FF00039BF000070CB0020FEE7FEE70148FDF777
:1030000017BE000048CF00207047000038B50446C6
:103010001248134B0068B0FBF3F04FF47A73584337
:1030200000906068B0F5827F0DD10B4600920022BF
:103030008021204600F016F870B1606D40F020004D
:103040006065032038BD009830B1401E00902068B4
:103050008068C0430006F6D5002038BD100000206F
:1030600000366E012DE9F8431E4691468846044617
:10307000089DFDF71DFD401B351AFDF719FD07469C
:1030800025480068C0F3CB30684338E0701C37D067
:10309000FDF70EFDC01BA84203D215B1009860B326
:1030A0002CE02068416821F0E00141606068B0F5E3
:1030B000827F0BD1A068B0F5004F02D0B0F5806FD1
:1030C00004D12068016821F040010160A06AB0F5D8
:1030D000005F09D12068016821F400510160206877
:1030E000016841F400510160012084F85100002082
:1030F00084F850000320BDE8F8830025401E0090AE
:103100002068816838EA010004D000214945BDD11A
:103110000020F0E70121F9E71000002070470000CF
:103120002DE9F0412E4C05460E46206820F0400067
:103130002060206840F4006020600122510229488C
:10314000FDF7B1FC0022A1142748FDF7ACFC284A8A
:10315000264811794158137921F00101C1501179A4
:10316000244B4158244F394019431379C1501379E6
:103170001B49C3580C311D4F03F0C0030C37402BC3
:103180001379A7F1040C25D043F80C501379D951C9
:1031900016491379091D5B5815796FF30F033343F3
:1031A0006B5011794158137941F01001C150616899
:1031B00041F002016160216841F040012160117914
:1031C0004158127941F0010181500C4901200860F9
:1031D000BDE8F081DD51137943F80C10D8E7000009
:1031E00000380040000C0240000402400060024031
:1031F000747A0208402C02001F80FCFFA00100200E
:1032000007498A68C2F34002002AFAD008730448CA
:103210000C3000688868C0F3C0100028FAD17047ED
:1032200000380040FEF750B970B596B030216846BE
:10323000FDF712F814210CA8FDF70EF8002525481B
:103240001195129513951495016841F08051016014
:10325000006800F0805015901F48016841F48041DB
:1032600001600068012600F4804015903004CDE92B
:10327000006002248001CDE90640082008904FF448
:10328000A870CDE9090407200B906846FEF78EFB75
:1032900008B172B6FEE70CA90F2081E831004FF4A7
:1032A000A0500F904FF48050109005210CA8FEF70D
:1032B000A3FA08B172B6FEE7C020CDE91204119658
:1032C00011A8FEF7FBF9002801D072B6FEE716B090
:1032D00070BD0000403802400070004002480168A4
:1032E00041F470010160704788ED00E010B50022E4
:1032F0004FF6FF7300EB8204B4F8844324040BD42C
:103300009A4207D002F00F0300EB830041F4004122
:10331000C0F88413D0B210BD521CD2B20B2AE9D32C
:103320001A46F7E77FB51C46012501AE002300953C
:1033300086E80E0002232A46214600F009FD04B06B
:10334000002070BD7FB51D4690F81D33089C03B169
:1033500000240123CDE90031CDE90224022300221B
:10336000294600F0F5FC04B0002070BD70B504469D
:10337000D0F87C03C16920464031FDF761FA0500B1
:1033800004D1D4F8D423022120469047284670BDAA
:1033900070B50546D0F87C030026C469217839B1A0
:1033A000284600F027F92178284600F0ABF926706E
:1033B000217B39B1284600F01DF9217B284600F019
:1033C000A1F92673617B39B1284600F013F9617BBE
:1033D000284600F097F96673D5F87C03C06920B1E0
:1033E0000BF00CFED5F87C03C661002070BDFEB565
:1033F000022205460123114600F062F90646FF2825
:1034000041D0022E3FD20146284600F04DFED0BBEF
:1034100050201CF03DFED5F87C130446C861200006
:1034200031D05021FCF718FF06EB860000EBC600F8
:1034300005EB400191F84E03020603D56070B1F828
:103440005003608161782846FFF750FF20700146E5
:1034500095F81D03638903228DE80D0095F81C3350
:103460006278284600F085FC21780022284600F08A
:103470004BFC00231A460A21284600F021F9FF28B8
:1034800001D0022801D30220FEBD00EB800101EB38
:10349000C00005EB400090F84E130A0604D5E17316
:1034A000B0F85013618303E0A173B0F85013218387
:1034B00090F856130A0604D5E173B0F858036083F8
:1034C00003E0A173B0F858032083A17B2846FFF7DF
:1034D0000DFF6073E17B2846FFF708FF2073208B08
:1034E00095F81D1302260091CDE9016095F81C3373
:1034F000A27B617B284600F03CFC608B95F81D1395
:103500000091CDE9016095F81C33E27B217B2846D0
:1035100000F02FFC002084F84C000246617B284616
:1035200000F0F2FB217B0022284600F0EDFB00209A
:10353000FEBD70472DE9F0410546D0F87C03012718
:103540000026C4694FF0040894F84C0005284AD2BC
:10355000DFE800F00305163B4200002743E021228C
:10356000A16C2A7420226A746E82AE8207222846D9
:10357000EA8200F062F848B9022084F84C0032E098
:1035800004F140012846FDF75BF920B101282AD05B
:1035900084F84C8027E084F84C60A06C94F84410C8
:1035A000027991421FD194F84610827991421AD142
:1035B00094F845104279914215D1216C00688142FE
:1035C00011D12846FFF7B5FF0DE02846FDF7ACF80E
:1035D0002846FDF775F806E00021284600F00FF8B0
:1035E00008B984F84C603846BDE8F0817047002087
:1035F0007047704710B500F0DDFA002010BD8278EA
:10360000012A07D10222027401224274002242825E
:103610008182C2820022114600F00FB87FB51C469D
:10362000012501AE0023009586E80E002A462146BA
:1036300000F08EFB04B0002070BD70B50446012080
:10364000A3780546012B0BD0022B08D1204600F0B1
:1036500014F958B1032809D0022800D1A57070BD13
:10366000A160A28125760221A17070BDA570002104
:10367000217670BD7FB51D4690F81D33089C03B1BF
:1036800000240123CDE90031CDE9022400231A46AC
:10369000294600F05DFB04B0002070BD1FB500237B
:1036A0001446CDE900310822CDE902231A4621460D
:1036B00000F04EFB04B0002010BDFDF7CDB80000B7
:1036C00070B50546002005F54E7500BF00EB80047F
:1036D00004EBC00405EB4404E67B0A348E4201D0BF
:1036E000FF2909D1A679964201D0FF2A04D1E479B5
:1036F0009C4206D0FF2B04D0401CC0B20228E5D368
:10370000FF2070BD0B2907D200EB8100B0F88413B5
:10371000C1F30E01C0F884130020704730B48578DF
:10372000029C012D0FD141F08001017406214174EA
:1037300003214282B1EB122F02D140F2094100E095
:1037400000218182C482224630BC1946FFF775BF32
:103750000A8803781A440A80017808447047F8B54B
:103760000E4600F11C05009104462B464FF40072F2
:103770000021FFF7D3FF070005D13246294604F5A3
:103780004E7000F000FB3846F8BD38B50D4600918C
:10379000044600F58E734FF480720021FFF7BEFFE0
:1037A000002839D194F81C1184F8261394F81D11BF
:1037B00084F82713B4F81E11A4F8281394F82011E4
:1037C00084F82A1394F8211184F82B1394F8221109
:1037D00084F82C1394F8231184F82D13082D1BD989
:1037E000B4F82411A4F82E13B4F82611A4F8301359
:1037F000B4F82811A4F8321394F82A1184F8341379
:1038000094F82B1184F8351394F82C1184F836139E
:1038100094F82D1184F8371338BDF8B51C461646B8
:10382000009341F4407200F58E731D460021FFF7AE
:1038300075FF002814D16978032911D129788A1ECF
:10384000A24200D814460021A2B2AD1C04E06B5C79
:10385000891C06F8013B89B29142F8D300213170EE
:10386000F8BD01004FF0000004D0012901D0022969
:1038700001D002207047012070472DE9F84F012543
:10388000017E04460B26092728464FF007084FF013
:10389000050A4FF00D090C2919D2DFE801F0B40632
:1038A0000E26313C48606B7C899A627904F11001E4
:1038B0002046FFF7F3FE022012E06179204600F077
:1038C000C5F9012804D0042871D002287FD09AE0DD
:1038D000207CE18A00F0800021B180283AD10320C9
:1038E000207690E0802814D02EE0D4F8C403E08144
:1038F0002379A2892046A168FFF790FE0420EFE714
:103900002179204600F0A2F9012802D0052840D0F4
:1039100056E0277677E000906379A2892046A16877
:10392000FFF7A8FED4F8C403E0810620D8E7617948
:10393000204600F08BF9012806D0052807D0022880
:1039400008D0042809D05EE084F818805BE00C20E1
:1039500020761EE084F818A055E0267652E000227A
:10396000237911462046FFF759FED4F8C403E081BD
:103970000820B5E72179204600F068F9012804D035
:10398000042824D0052804D03DE084F818900025B0
:1039900039E0032537E00090002263791146204684
:1039A000FFF768FED4F8C403E0810A2098E70EE030
:1039B0006179204600F04AF9012804D00228A8D0F5
:1039C000042804D01FE0002584F818901BE0267618
:1039D00019E0617E491CC9B26176022902D82076BD
:1039E000A07010E0D4F8D42306212046904700258B
:1039F000657661792046FFF785FE21792046FFF73D
:103A000081FE257002252846BDE8F88F2DE9FE438A
:103A100004460126407800250D27B04604F58E7235
:103A200008280CD2DFE800F0042A3C686F869299DF
:103A300008212046FFF7A9FE10B103280DD097E01A
:103A400094F82D03A07184F8018094F81D1300915F
:103A5000CDE9015094F81C3338E094F81E03401C63
:103A6000C0B284F81E03032818D861792046FFF7F6
:103A700049FE21792046FFF745FE59E012212046F4
:103A8000FFF783FEA8BB022047E000BF94F81E03A7
:103A9000401CC0B284F81E03032840D9277067E099
:103AA0000121204600F00BFB10B1032822D05FE07B
:103AB0000220FFF702FE84F81C8303206070A079C7
:103AC00094F81D13CDE90015434602902179802218
:103AD000204600F04EF9A07994F81D130091CDE92D
:103AE000015094F81C3361790022204600F041F91E
:103AF0003EE00EE027702EE009212046FFF72FFE62
:103B000038B9042009E0B4F83A132046FFF727FE3D
:103B100010B10328BAD02BE00520607028E061794D
:103B20002046FFF7EFFD21792046FFF7EBFD65709A
:103B300025701DE094F8341306250AE0FF23204683
:103B4000FFF76BFE38B1032805D011E094F8351368
:103B500007250029F2D165700AE094F8361331B1D7
:103B6000FF232046FFF759FE08B1032800D10026A5
:103B70003046BDE8FE8370B50E46040018D084F8C8
:103B8000CC230025C4F87C53C4F8805304F5487452
:103B9000FCF728FEE57025706570A570A4F54874E3
:103BA0000EB1C4F8D463204600F064F8002070BD64
:103BB000022070BD10B5D0F8D003FCF79EFFBDE821
:103BC0001040FFF74EBE012180F82013002180F83D
:103BD000211380F822130846704710B504460120CF
:103BE00084F82103002084F8200384F8230320466E
:103BF00000F0A5F821792046FFF784FD6179204681
:103C0000FFF780FD002010BD10B590F8CC0301280F
:103C100002D10846FEF7FEFFC820FCF71DFE00207B
:103C200010BDD0F8D003FCF760BF10B50124D0F868
:103C3000D003FCF74EFF20B1012805D0022803D1A4
:103C400001E0002400E00224204610BDD0F8D0039B
:103C5000FCF742BFD0F8C413491CC0F8C413017864
:103C60000B2905D1D0F87C13002901D089690847B8
:103C70007047000010B5044690F8CC0301281CD111
:103C80000F484FF0A0410022C0F80043C4F8D00311
:103C90000160082181600121C0E903120221C0E90D
:103CA0000612FDF75CF808B1FCF7C8FD0448FCF704
:103CB0000DFF0146204600F024F8002010BD000052
:103CC00048CF0020FEB508AF97E870008DE870007F
:103CD000D0F8D003FCF723FFBDE8FE40FFF7C1BDDD
:103CE000002180F823137047012180F823137047C7
:103CF00010B5D0F8D003FDF7BDF8BDE81040FFF7D0
:103D0000B0BDC0F8C4137047D0F8D00301EB410335
:103D100003EBC10100EB810090F83B1011B180F87A
:103D2000542001E080F855200020704710B5D0F8ED
:103D3000D003FDF7A6F8BDE81040FFF792BD10B51F
:103D4000D0F8D003FDF7B3F8BDE81040FFF789BD08
:103D50002DE9FF410DF1280898E8F0008DE8F0000A
:103D6000D0F8D003FCF717FF04B0BDE8F041FFF72F
:103D700078BDFEB508AF97E870008DE87000FFF7DA
:103D8000A1FF0020FEBD2DE9F84105460B782B7000
:103D90004B786B704B886B800B792B714B796B7107
:103DA0008B79AB71CB790846EB710027097A2972C0
:103DB000092A54D90921ADF800104BE06946FFF7F4
:103DC000C7FC4178042943D107EB870101EBC70108
:103DD00005EB4108017888F80A10417888F80B1043
:103DE000817888F80C10C17888F80D10017988F86E
:103DF0000E10417988F80F10817988F81010C17978
:103E000008F10A0488F81110017A2172002615E0E1
:103E10006946FFF79DFC417805290FD108EBC601E3
:103E200002780A7542784A7582788A75C278CA75AE
:103E300082880A838279761C8A76F6B22179B14229
:103E400004D96A88BDF800108A42E1D87F1CFFB20D
:103E5000022F04D26988BDF800209142AED8BDE897
:103E6000F8810000FEB5022104468DF8001094F898
:103E700021230020012A01D10322227022780D265D
:103E8000082700250C2A17D2DFE802F0061734DED7
:103E9000F869C27C848C9AD794F8200300280BD050
:103EA00001202070C820FFF708FC2046FFF720FF04
:103EB00084F81C53C4F8C853E0E094F823030128A5
:103EC0000DD0D4F8C803B0F57A7F0CD994F81F034D
:103ED000401CC0B284F81F03032870D86DE084F83A
:103EE0001F532170CAE00A30C4F8C8030A20FFF744
:103EF000E4FBC3E0D4F8D42312B104212046904758
:103F00006420FFF7DAFB2046FFF78FFE84F81D03DD
:103F10000520207000212046FFF7E8F9607180211C
:103F20002046FFF7E3F920710146A07994F81D239C
:103F30000092CDE9015094F81C3380222046FFF70F
:103F400018FFA07994F81D130091CDE9015094F861
:103F50001C33617900222046FFF70BFF8EE02046DC
:103F6000FFF754FD8DF800009DF80000002808D1EF
:103F700084F8245394F83703012801D0072058E02F
:103F800027707BE0D4F8D423002A77D00121204683
:103F90009047F5E794F83D13204600F09EF8B0BB3B
:103FA000092046E094F83F034FF00A05800604D547
:103FB0000121204600F09FF848BB25705EE03AE002
:103FC000D4F8801319B3C4F87C5394F8471300BF96
:103FD00004EB8002D2F8782312798A4206D104EBEE
:103FE0008000D0F87803C4F87C0304E0401C10F093
:103FF000FF00EDD02846F0B1816820468847D0B94F
:1040000006202070D4F8D42303212046904735E0C1
:10401000D4F87C0378B10169204688478DF8000008
:104020009DF8000020B19DF80000022803D025E093
:104030000B20207022E0267020E0D4F87C03E8B149
:1040400041692046884719E084F821532046FCF74F
:10405000C9FBD4F87C0320B1C16820468847C4F866
:104060007C53D4F8D42312B105212046904794F80C
:104070002203012804D02046FFF758FE0020FEBD91
:1040800084F82253204600F044F8F7E7002211B1EB
:10409000D0F8803313B10222104670470123C0F8D4
:1040A0008033C0F87813F7E70246002092F83C33DB
:1040B0008B4202D982F8241370470220704782781D
:1040C000012A06D1002202740523437441828282B0
:1040D000C28200221146FFF7B0BA8278012A06D1C7
:1040E000002202740923437441828282C282002228
:1040F0001146FFF7A2BA8278012A06D10022027483
:104100000323437441828282C28200221146FFF758
:1041100094BA10B50446FFF709FE01212046FFF7C7
:1041200073FD002010BD000001290AD005480229B6
:1041300006D0042903D0052903D1032100E0012181
:10414000017070470000002070B5044606990A9E71
:10415000049D0D98012916D0E06840F04000E06011
:10416000204600F02BF8A16B1EB321F48031A1632F
:10417000012D07D1A16841F00601A160A16841F0BD
:104180002001A16070BDA16B21F48031A163E168C1
:10419000094A1140E160E16821F44011E160012821
:1041A00003D1E06840F48010E060204600F006F89B
:1041B000DEE741F48031DAE7BFFFBDFF01220C49A1
:1041C00002E0521C8A420BD80369002BF9DA02691B
:1041D00042F001020261012204E0521C8A4201D92C
:1041E000032070470369DB07F7D100207047000008
:1041F000400D0300816821F00101816000207047BB
:1042000000EB4110064AC0F81025D0F8001521F047
:10421000804141F00041C0F80015002070470000C7
:104220000000088008B5D0F8402422F02E02009249
:10423000D20405D4012909D1009941F4805103E049
:1042400021B9009921F48051C0F84014002008BD24
:10425000816841F001018160002070470021102237
:104260000261054A491C914201D903207047036944
:10427000DB06F7D400207047400D03000022202306
:1042800043EA811101610549521C8A4201D9032088
:10429000704703699B06F7D400207047400D030068
:1042A000D0F8080480B2704708B5D0F840040090F8
:1042B000C0F3414008BD406900F00100704710B5EF
:1042C00000EB4111D1F80025D1F80035C2F381424D
:1042D0008468DB0FA40600D51BB34FF47A736AB170
:1042E000022A0BD0D1F8002542F08042C1F8002507
:1042F000D0F8100410F47F0F31D00CE0D1F8002575
:1043000042F08042C1F800258268920609D4C06A52
:1043100010F47F0F07D0D1F8000540F00040C1F83D
:104320000005002010BDD1F8000520F00040C1F8C4
:104330000005D1F8000540F00040C1F80005D1F8B3
:10434000000520F40040C1F80005012002E0401CF7
:104350009842E6D8D1F80025002AF8DBE1E7D1F849
:10436000000520F00040C1F80005D1F8000540F03C
:104370000040C1F80005D1F8000520F40040C1F864
:104380000005012002E0401C9842CAD8D1F800255F
:10439000002AF8DBC5E700002DE9F0431E46DDE901
:1043A0000785002700EB41147B1EDDF82490C4F83C
:1043B0000835D5B1012D33D0022D16D0032D28D0CC
:1043C0005FF00107D0F8183401F00F0C012101FA59
:1043D0000CF10B43C0F81834816941F00071816120
:1043E00011062AD54FF4004128E040F29D43C4F85D
:1043F0000C35130605D500BFD4F80C3543F4807393
:1044000018E0C36BDB05DDD5D4F80C3543F0600351
:1044100010E040F29D63C4F80C351306ECD4D1E7EC
:1044200040F22523C4F80C351306CBD5D4F80C354F
:1044300043F4C073C4F80C35C4E70021FFF734FF20
:10444000B8F1020F04D1022802D04FF4003000E08E
:1044500000204FF0FE5303EA86534FF4F04606EA7D
:10446000C22213434FF4402202EA85421343C9F3A8
:104470000A0213430B430343C4F80035032D05D14F
:10448000D4F8000540F00050C4F800053846BDE8F7
:10449000F083D0F8140480B27047F8B54C78C56B3F
:1044A0004FF48073ED0515D50D799DB9012A01D022
:1044B0006AB10FE0CD790DB1022D0BD100EB44159F
:1044C000D5F80C6526F07006C5F80C6502E04D794C
:1044D000012D0DD04E697EB10D8977197F1EB7FB76
:1044E000F5F7BFB29F4208D91F462B020B6104E0CB
:1044F0002146FFF785FE6EE00127CB781BB10B89C3
:104500007B430B6101E033460E61C3F312056FF08C
:10451000604303EAC7431D438B7A4FF0C04606EA67
:1045200043731D4300EB4413C3F8105512B1CC681C
:10453000C3F81445D0F80844D3F8005544F30004F8
:1045400025F00055C3F80055D3F80055641C45EA22
:104550004474C3F80045D3F8004524F08044009427
:10456000CC78002C009C02D044F4004401E024F4F8
:10457000004444F000440094C3F800455ABBCA7894
:104580004ABB4A693AB3CB7933B1012B0FD0022B26
:1045900002D0032B17D10AE0D21CC36AC2F38F02E8
:1045A0009BB293420FD2826942F020020AE0D21CF1
:1045B000D0F81034C2F38F029BB2934203D28269C7
:1045C00042F080628261002200928A8A93B24A7825
:1045D000C96800F00CF90020F8BD00002DE9F04199
:1045E0000025DDF8188017460446C0F8005E806B91
:1045F00040F40010A063A06B20F40020A063A06B27
:1046000020F48020A063E06BC00501D5012B04D00D
:10461000D4F8000420F0040103E0D4F8000440F0D2
:1046200004012046C4F800141021FFF727FE20469D
:10463000FFF714FE0020461E07E000BF04EB401108
:10464000C1F80865C1F80C55401C8742F6D8012115
:104650002046FFF7E7FDC820FCF7FEF8A56166617C
:10466000E06BC00506D54FF4007060620C48A06294
:104670000C4804E0802060620B48A0620B48C4F83C
:104680000001B8F1000F03D1A06940F01000A06153
:10469000A06907490843A0610020BDE8F08100003F
:1046A000000200010003E00080006000E000400024
:1046B000080020A3D0F8002422F00302C0F8002450
:1046C000D0F8002401F003031A43C0F800240129A4
:1046D00002D0022903D006E04BF6803101E041F21E
:1046E0007071C0F804140020704741698069084067
:1046F0007047D21C10B59308002200F5805002E0EC
:104700000468521C10C19A42FAD3084610BD38B54D
:104710000446D0F8400420F02E00009040F4807051
:10472000C4F84004642004F58864FCF795F8009808
:1047300020F4807020600A20FCF78EF8002038BD3D
:1047400010B5C26822F0C042C260012902D029B16E
:10475000012010BDC16841F0005102E0C16841F084
:104760008041C1603220FCF777F8002010BD0000C6
:1047700030B504468068002520F00100A0601021BB
:104780002046FFF77BFD2046FFF768FD5FF0000045
:1047900004EB4011D1F8002522F0802242F0804243
:1047A000C1F80025401C0F28F2D900204FF47A737D
:1047B00004EB4011D1F8002522F4004242F04042BF
:1047C000C1F800256D1C9D4203D8D1F80025002AB0
:1047D000F8DB401C0F28EBD94FF0FF30C4F814046D
:1047E0006061A06840F00100A060002030BD10B5FD
:1047F000029C64B9DB1C9C0800EB0230002300F52E
:10480000805002E004C902605B1CA342FAD300207E
:1048100010BDFEE738B50C4C002210212046FCF7F5
:1048200042F90A4A4FF47A70511F0090A1F1280012
:104830000523006AFDF702FB2046BDE8384001224F
:104840001021FCF730B9000000080240DD01002013
:1048500070B50024094D2346224600BF35F812608A
:10486000344405EB4206521C368AD2B23344082A3D
:10487000F4D3E2080280D808088070BD24D5002057
:1048800010B51720FCF789FE01490120087110BD01
:10489000B001002070B50F4C0026206221702671F7
:1048A00090206070D020A07004F12805802028702E
:1048B000FFF7B0FF0120FBF7CFFF6078C108297038
:1048C00040016870A078C108A9704001E8702E719D
:1048D00070BD0000B0010020044A32F8013F5BBA0D
:1048E0000380508840BA088070470000DD01002036
:1048F00070B50D462DED028B82B0064601A96846C3
:10490000FFF7EAFF2A48407948B1BDF8000030803F
:10491000BDF80400288002B0BDEC028B70BDBDF86C
:104920000400FBF7DBFD224C383494ED021B53EC02
:10493000112BFBF761FD41EC180BBDF80000FBF7F4
:10494000CDFD94ED001B53EC112BFBF755FD53EC03
:10495000182BFBF7AAFC94ED041B53EC112BFBF76F
:10496000A4FCFBF7C8FD3080BDF80400FBF7B6FDE2
:1049700094ED081B53EC112BFBF73EFD41EC180B9B
:10498000BDF80000FBF7AAFD94ED061B53EC112BBC
:10499000FBF732FD53EC182BFBF787FC94ED0A1B59
:1049A00053EC112BFBF781FCFBF7A5FDB2E70000F0
:1049B000B00100202DE9F0412F4C2079002830D0A3
:1049C00000252E4EDFF8B8800327012808D00228E2
:1049D00029D0032825D12571E5702025294E3EE0F8
:1049E000FCF766F8616A401A01281AD9FFF712FF2E
:1049F000E07806EB400000F11001FFF779FFE07866
:104A0000401CC0B2E070082802D1E570022020717D
:104A100020214046FCF73AF8012819D0FCF748F865
:104A20006062BDE8F081FCF743F8616A401A012832
:104A3000F7D9FFF7EFFEE07806EB400000F1100138
:104A4000FFF756FFE078401C00F00700E070DFE75A
:104A50002771E3E7356094F90000FCF791FD94F9C4
:104A60000000FCF7B8FD0028F4D194F90000BDE87F
:104A7000F041FCF7A3BD0000B001002024D50020C8
:104A800000080240143C01400907090E002804DB1D
:104A900000F1E02080F80014704700F00F0000F1F2
:104AA000E02080F8141D704702E008C8121F08C1FA
:104AB000002AFAD170477047002001E001C1121F9F
:104AC000002AFBD1704770B5044600256FF02F0611
:104AD00008E02068411C2160007805EB850106EBA9
:104AE000410145182068007800F004F80028F0D152
:104AF000284670BD3038092801D8012070470020B1
:104B00007047000010B54421074801F0EBF800227F
:104B10001E2106481AF068FD054CA06002F084F8DA
:104B20000020207010BD00007CD30020E16C000844
:104B30008400002070B5B1F90030B2F90040A34202
:104B400000DC23460380B1F90250B2F90240A542CD
:104B500000DD2C464480B1F90460B2F90450AE4245
:104B600000DA35468580B1F90610B2F90620914287
:104B700000DB1146C1800120AB4201DC8C4200DD2C
:104B8000002070BDF8B50D460446B0F90000B1F93B
:104B900000101646884247DBB4F90210B5F902202E
:104BA000914241DBB4F90410B5F9042091423BDC99
:104BB000B4F90610B5F90620914235DC96B3ADF88C
:104BC00000006088ADF8020032466946284600F0D1
:104BD00049F8002827D0A088ADF800006088ADF81B
:104BE000020032466946284600F03CF800281AD0F8
:104BF0002088ADF80000E088ADF802003246694632
:104C0000284600F02FF800280DD0A088ADF800004D
:104C1000E088ADF8020032466946284600F022F8E6
:104C2000002800D00120F8BD0020F8BDB0F9002018
:104C3000B1F904309A4213DCB0F90420B1F9003024
:104C40009A420DDBB0F90220B1F906309A4207DC36
:104C5000B0F90600B1F90210884201DB012070476B
:104C6000002070472DE9FC4114460E46B1F90020A2
:104C7000B0F9001005468A423ADBB5F904008242D9
:104C800036DCB6F90270B5F90220974230DBB5F98F
:104C900006309F422CDC002C75DD401A9A1A401C0D
:104CA000521C00B212B200EBD07002EBD272401074
:104CB0005210904200DB1046844200DD0446ADF8FD
:104CC0000010288800222044ADF804006888ADF860
:104CD0000200688831462044ADF806006846FFF7B8
:104CE000C1FF40B1BDF804002044ADF804003FE02E
:104CF0000020BDE8FC81E8880022001BADF802001E
:104D0000E888ADF8060031466846FFF7ABFF28B1EA
:104D1000BDF804002044ADF8040011E0A88800228A
:104D2000001BADF80000A888ADF8040031466846C5
:104D3000FFF798FF50B1BDF80000001BADF8000070
:104D4000BDF80200001BADF8020016E06888ADF85F
:104D50000200688800222044ADF80600314668460B
:104D6000FFF780FF70B1BDF80000001BADF8000038
:104D7000BDF806002044ADF806003146684618F03C
:104D800085F8B6E7FFE70120B3E710B5B1F90040B9
:104D9000B2F900309C4200DA23460380B1F90240A8
:104DA000B2F902309C4200DA23464380B1F9044054
:104DB000B2F904309C4200DD23468380B1F906102D
:104DC000B2F90620914200DC1146C18010BD2DE9E8
:104DD000FF4F87B01D46DDE91476DDF858908B460D
:104DE000022E52D3002F50D001F0C2F980460FF0AE
:104DF000EBFB00F11004D0F808A0D8F80000416ADD
:104E000001B188475A4604A80799FFF793FE002886
:104E10003BD0BDF810002188401A01B2ADF8101047
:104E2000BDF812006288801AADF81200BDF81400B7
:104E30002288801A00B2ADF81400BDF816206388ED
:104E4000D21AADF816209DB1D8F80020127A520778
:104E50000ED4401A401C01B2002007E02A5C802AD0
:104E600001D9FF2200E000222A54401C8842F5DBD1
:104E7000D8F80000406958B1CDE90065029704AA4E
:104E800051462046099B09F08DFB0BB0BDE8F08F21
:104E9000B9F1000F0AD001A8009680E8A00204AA88
:104EA00051462046099B09F0FBF8EEE7CDE9006585
:104EB000029704AA51462046099B09F08DF9E4E7C0
:104EC0002DE9FF4F87B01D46DDE91476DDF858A0C7
:104ED0009146022E54D3002F52D0014605A8089ABD
:104EE000FFF728FE00284BD001F042F980460FF072
:104EF0006BFB00F11004D0F808B0D8F80000416A4C
:104F000001B18847BDF814002188401A01B2ADF8FC
:104F10001410BDF816006288801AADF81600BDF8AE
:104F200018002288801A00B2ADF81800BDF81A20C7
:104F30006388D21AADF81A209DB1D8F80020127AF1
:104F400052070ED4401A401C01B2002007E02A5C30
:104F5000802A01D9FF2200E000222A54401C884206
:104F6000F5DBD8F80000406968B1CDF800900397F0
:104F7000CDE9016505AA59462046089B1BF00AFBAE
:104F80000BB0BDE8F08FBAF1000F0BD002A805AA54
:104F900080E8A004CDE9009659462046089B1BF006
:104FA000ADF8EDE7CDF800900397CDE9016505AACE
:104FB00059462046089B1BF051F9E1E770B50546BC
:104FC0001AF0AEFA254C0646E868606028461AF0EA
:104FD000E1FB6068006917F0F5FE6068406908B1A0
:104FE00017F0F0FE6068C06917F0ECFE6068006AB8
:104FF00017F0E8FE60680025016961B318F01CF93C
:1050000018F098F86068B0F85011F1B10068007AB3
:10501000C00701D003F036FB60684FF48071303078
:1050200014F072FA6068202100F5987014F06CFAA0
:105030006068A0F8505130461AF06CFA014660687A
:10504000006883690BB12268984714F09FF8BDE8A7
:10505000704000F017B8A0F8505170BD60000020FB
:1050600007490122496807E04B68834202D00B6878
:10507000834200D10A7649690029F5D170470000C2
:1050800034000020704700000421014800F02ABECF
:1050900070D300201C21014800F024BE88D30020DA
:1050A0002DE9FF5F0446DDE90E0613B9B0F5807FF8
:1050B0007ED0B6F900504FF0FF376D42454307EB05
:1050C00025252DB22580B6F902C0CCF1000C0CFBD1
:1050D00000FC07EB2C273FB26780B6F900C0A1EBBC
:1050E0000C0141434FF0020C0CEB212109B2A180CD
:1050F000B6F90280A2EB080242430CEB222000B278
:10510000E080002B7ED04FF00A0A93FBFAF568424C
:1051100000EB800003EB400705F1010928B21AF00B
:1051200081FC00900FFA89F01AF07CFC83465A3516
:1051300028B21AF077FC804609F15A0000B21AF042
:1051400071FC0146009AC7F10A0000FB02F300FB64
:1051500008F00BFB073301FB070193FBFAF291FB0D
:10516000FAF04FEA601AB4F90010B4F902000AFB31
:1051700001FCCDF80CC05511378805FB10C207EBB8
:10518000A2220FFA82F905FB01F2BB460292778850
:105190000AFB002107EBA1210BB2B4F90410BE46B3
:1051A0000AFB01FC05FB10C20BEBA22216B200E0C9
:1051B0002FE005FB01F7CDE9007CB4F90680DDF8AE
:1051C0000CC00AFB007005FB18C1DDF804C0009F8D
:1051D00005FB18C5029A0AFB087C0AFB08220BEBA8
:1051E000A1210EEBAC270EEBA02009B20EEBA22200
:1051F0000BEBA5250FFA87FC00B212B22DB24F4679
:10520000494500E00EE000DA0F46B54216DAA8463E
:1052100015E000202080491E6080A180521EE2809F
:10522000BDE8FF9F32882A44228072883A44628017
:1052300032881144A180718808444FE0B046474548
:1052400004DA4F46494506DA0F4604E0B54201DA72
:105250002F4600E0374627804F46494500DD0F4680
:10526000B54201DDA84600E0B046474503DD4D46A6
:10527000494505DC01E0B54201DD294600E0314643
:10528000A1809A4201DA154600E01D46844501DA04
:10529000614600E001468D4205DA9A4201DA114684
:1052A00006E0194604E0844501DA614600E0014663
:1052B00061809A4201DD114600E01946844501DD16
:1052C000654600E00546A94205DD9A4201DD10462B
:1052D00004E0184602E0844500DD6046E0809FE778
:1052E0002DE9FE4F0446D0F800B0B0F90800E5897A
:1052F000081AB4F90A10511AD4E90932B5F5807FB9
:105300003AD0A589002DA56B05FB00F005FB01F542
:105310004FEA60104FEA65113CD0266BE56A06FB48
:1053200000F705FB1177454306FB015003EBA72966
:1053300002EBA020B4F904104FEA29270612804698
:10534000B9424ADD002F48DBB4F90600B04244DD23
:10535000002E42DB94F83400420741D5820704F165
:1053600014001BD401FB067102224D0092460BEB88
:10537000050114F07FF821E0266BE56A06FB00F7D3
:1053800005FB1177454306FB015003EBA70902EB30
:10539000A000CFE703EB00095018CBE701FB067133
:1053A00001EB41054FF0030A0BEB0501022214F05B
:1053B00061F8E81C584410F8010CA07594F834000A
:1053C000C00723D00022FF2110460EF0FAFB009008
:1053D000BDF80000A18A814218D10020BDE8FE8FEF
:1053E00032B204F118002369CDE90102002539B277
:1053F000AA468B4611F084FD0090BDF80000A08203
:10540000DDE90102594611F013FDD6E7E07C78B1E1
:10541000A4F83C90A4F83E80A4F84070A4F8426040
:10542000656484F848A02046BDE8FE4F00F002B84D
:105430000120D3E72DE9F04F044690F83C10D0F856
:10544000009090F83E0087B04FF0FF36702907DAE1
:10545000B4F940203546012A00D5002580310DE001
:10546000902916DDB4F94020B4F904300125521C0E
:105470009A4200DB0025A1F27F114942C9B2884659
:10548000702809DAB4F94210012900D500268030CD
:1054900010E00025FF21F2E790280DDDB4F942105D
:1054A000B4F906200126491C914200DB0026A0F237
:1054B0007F104042C7B201E00026FF2760690090DC
:1054C000A07D0590002083468246049094F8340025
:1054D000400744D594F84810606C11FB050149441D
:1054E000022201A813F0C6FFA08894F8481010FB10
:1054F00001F0616C022206FB0011494403A813F07D
:10550000B9FFA18894F8480011FB00F1626C06FB1A
:10551000012210FB05901118022202A813F0AAFF25
:1055200094F83400800761D594F84800626C10FB51
:10553000052300EB09010B4413F8013C0493A388F5
:1055400013FB00F306FB0322114411F801BC10FB0E
:105550000500111801EB090010F8010C45E0B4F842
:105560004000B4F94220284401B204F118008146F9
:10557000236911F0C5FC0190B4F84200B4F9401061
:10558000304402B254F8103F484611F0B9FC039081
:10559000608E2368304402B2208E284401B248460F
:1055A00011F0AEFC029094F82400103C80071DD549
:1055B000B4F9422034F8400F284401B2484611F0B3
:1055C00037FC04906088B4F90010304402B24846B9
:1055D00011F02EFC83466088304402B234F8400952
:1055E000284401B2484611F023FC824694F8340066
:1055F00042464546800735D5059810FB08F30499C7
:10560000C8F1FF0011FB0031C1F307211BFB08F6B5
:105610001AFB0060C0F3072011FB07F3C7F1FF0678
:1056200010FB06331B0AA375022907D8022803D8EA
:10563000002007B0BDE8F08F002702E0022800D864
:10564000FF270598022800D800220498022800D8D5
:10565000FF22BBF1020F00D80025BAF1020F03D8D8
:10566000FF2501E0FF20A075EAB1FF2A04D0DDE9A3
:1056700000010EF05AFB0090BDB1FF2D17D0DDE9FF
:1056800002102A460EF051FB049097B1FF2F05D06F
:1056900001463A4600980EF048FB0090BDF8000025
:1056A000A0820120C5E70198E5E70298ECE703989E
:1056B000EAE7BDF81000F3E72DE9F0470446B0F93A
:1056C00008000A2700026062B4F90A000002A06222
:1056D000B4F90C1091FBF7F5684200EB800001EB88
:1056E0004006684205F1010800B21AF09BF98246B3
:1056F000E84300B21AF096F98146C5F15A0000B2AB
:105700001AF090F90546C8F15A0000B21AF08AF969
:10571000C6F10A0101FB0AF3024609FB06306943A0
:1057200090FBF7F002FB061191FBF7F14011E062EC
:1057300048112063A07C11F089FC94F8341060F3C8
:10574000000184F83410A07C11F070FC94F834103F
:1057500060F3410184F83410A07C042824D005288B
:1057600022D0062820D021F0040100BF84F8341094
:1057700021682162A16921F0E00160F30401A088A1
:1057800060F39421E08860F35F51A161E0894FF4F8
:10579000001101EB5001B1FBF0F0A063FF20A075F8
:1057A000208AA082BDE8F08741F00401DEE7000016
:1057B0002DE9F04115460E460746114C19F0B0FE92
:1057C00080462B4632463946204611F07BFF20B1F9
:1057D0000020A062E06950B110E02C21204613F0B7
:1057E00093FE4FF00040A0620020BDE8F0814046EB
:1057F00019F090FEE06108B90120E0612046F4E76D
:10580000ACD3002010B51421074800F06BFA11F05A
:105810002BFF40B1054901600549416005498160A0
:105820000549C16010BDFEE794D3002099700108BE
:1058300011740108897501086770010870B50D467B
:1058400004461021284613F05FFE206800780128E6
:1058500004D0022807D0042807D008E0208A288036
:10586000608A688003E0E06800E00A2068602068E1
:105870004268002A03D02946BDE87040104770BD39
:10588000FEB5866A0446BEB9A08A218A0844A08271
:10589000E08A618A0844E082204608F0E9FE0600BA
:1058A00079D020460BF010F900220921304610F083
:1058B000C7FF607880076ED4208A10B9608A0028FC
:1058C00069D00025ADF80450ADF8085094F83C00BC
:1058D00000F00F000328304616D015F017F80746E1
:1058E000304614F0D9FE03460C200090B4F9121093
:1058F0003A46304608F07EFAADF80800304614F01B
:1059000019FFC10712D017E014F09CFF074630467C
:1059100014F038FF024603200090B4F910103B4603
:10592000304608F067FAADF80400E7E7BDF9041067
:10593000002901DDADF80450810705D4BDF904103C
:10594000002901DAADF80450410705D4BDF908106B
:10595000002901DDADF80850000705D4BDF90800A5
:10596000002801DAADF8085002AA01A920461BF070
:105970001EFD0023BDF90820BDF90410304616F0C5
:105980006FFEA08ABDF804100844A082E08ABDF82A
:1059900008100844E082FEBD2DE9FC5F0446806AE1
:1059A0005FEA000B71D094F83C0000076DD012F054
:1059B00019F8019000684021457E584615F0D6FE42
:1059C0004FF0000818B9A4F81A80A4F818805846B7
:1059D00014F08EFF8246584614F091FF064694F864
:1059E0003C004FF0640900F00F000C2802D003289F
:1059F0004CD09AE0A4F8188056B1B4F91A50002798
:105A000011F0F0FF00684946407EC0F1640022E0DA
:105A1000608BC5F1640110FB01F191FBF9F060832B
:105A2000584614F039FE0546584614F06FFF0246FA
:105A30000C200090B4F91A102B46584608F0DAF9F9
:105A40006083024600231EE07A1917B210FB05F2AC
:105A500092FBF1F215B2002DF6D1ADF80070A4F86A
:105A60001A806A46002120461BF0A1FC4FF4C04278
:105A7000BDF900305142584608F050FFBDF8001003
:105A80000123084402B200214CE09AE0A4F81A80F5
:105A9000BAF1000F0AD0B4F91850002711F0A2FF94
:105AA00000684946407EC0F1640022E0208BC5F1C9
:105AB000640110FB01F191FBF9F02083584614F0CA
:105AC00061FE0546584614F0BDFE034603200090D3
:105AD000B4F918102A46584608F08CF9208301467C
